:1000000078009003E812000E12002302000B7438EF
:1000100012004A740E12004A740112004A740C1243
:10002000004A227400936013F5A012003CA308124A
:100030000058B8040312006302002322120058F58E
:10004000A0D2B1C2B2D2B3C2B322120058F5A0C23C
:10005000B1C2B2D2B3C2B3227DFA7CFA0000DCFC9A
:10006000DDF822740112004A120058740212004A8C
:0600700012005878002286
:1003E800414D49524D4F48414D4D4144204D415298
:1003F8005348414C205049524748455942495F4D5E
:0F040800454852414E204D4F4E54415A455200E7
:00000001FF
