:0300000002006497
:03000B000200945C
:10006400758921758DFD758C00758AFF759850A86A
:100074000075A88275A000D28ED28C9000E6E4931D
:1000840060F9118CA3020082F5993099FDC299227E
:10009400C28C758C00758AFFC0E0309832C2A0E52E
:1000A40099F590C298B441077801C2FF0200D3B415
:1000B40061077801C2FF0200D3B44D077801C2FF83
:1000C4000200D3B46D077801C2FF0200D37800E8C0
:1000D400600BE97002B2A004B41001E4F9D0E0D2DC
:1000E4008C32416D6972204D61727368616C2C2091
:1000F4004D656872616E204D6F6E74617A65722C05
:1001040020003F065B4F666D7D07FF6F777C395E8D
:03011400797100FE
:00000001FF
