:10000000C2D3C2D49003E87590FF7589017F007E4A
:100010000012004812007712009BB8031DB90205B8
:100020007400020040B90105EFFA020011EE75F00C
:100030000AA42FFB1200A6020011E875F003A42900
:100040008FF0FFAEF00200117590FEE590B4FE1B3C
:100050007590FDE590B4FD167590FBE590B4FB112D
:100060007590F7E590B4F70C02004878002278010B
:10007000227802227803227590EFE590B4EF137591
:1000800090DFE590B4DF0E7590BFE590B4BF090234
:1000900000777901227902227903227DFA7CFA0025
:1000A00000DCFCDDF8227F0274649BFC8BF0ADF079
:1000B000D280EA930200BDC2808CF0ADF0C28C7594
:1000C0008A00D28CD28CC28C858AF0B5F0F6DDED38
:0300D000DFE52247
:0A03E800006432211914110E0C0BF1
:00000001FF
